{
  "contractName": "SimpleBank",
  "abi": [
    {
      "inputs": [],
      "stateMutability": "nonpayable",
      "type": "constructor"
    },
    {
      "inputs": [],
      "name": "totalBalance",
      "outputs": [
        {
          "internalType": "uint256",
          "name": "",
          "type": "uint256"
        }
      ],
      "stateMutability": "view",
      "type": "function",
      "constant": true
    },
    {
      "inputs": [],
      "name": "getTotalBalance",
      "outputs": [
        {
          "internalType": "uint256",
          "name": "",
          "type": "uint256"
        }
      ],
      "stateMutability": "view",
      "type": "function",
      "constant": true
    },
    {
      "inputs": [],
      "name": "viewMyBalance",
      "outputs": [
        {
          "internalType": "uint256",
          "name": "",
          "type": "uint256"
        }
      ],
      "stateMutability": "view",
      "type": "function",
      "constant": true
    },
    {
      "inputs": [],
      "name": "deposit",
      "outputs": [],
      "stateMutability": "payable",
      "type": "function",
      "payable": true
    },
    {
      "inputs": [
        {
          "internalType": "uint256",
          "name": "amount",
          "type": "uint256"
        }
      ],
      "name": "withdraw",
      "outputs": [],
      "stateMutability": "nonpayable",
      "type": "function"
    }
  ],
  "bytecode": "0x608060405234801561001057600080fd5b5060008081905550610539806100276000396000f3fe60806040526004361061004a5760003560e01c806312b583491461004f5780632e1a7d4d1461007a578063ad7a672f146100a3578063c06dc782146100ce578063d0e30db0146100f9575b600080fd5b34801561005b57600080fd5b50610064610103565b604051610071919061032e565b60405180910390f35b34801561008657600080fd5b506100a1600480360381019061009c919061037a565b61010c565b005b3480156100af57600080fd5b506100b8610252565b6040516100c5919061032e565b60405180910390f35b3480156100da57600080fd5b506100e3610258565b6040516100f0919061032e565b60405180910390f35b61010161029f565b005b60008054905090565b60003390506000600160003373ffffffffffffffffffffffffffffffffffffffff1673ffffffffffffffffffffffffffffffffffffffff16815260200190815260200160002054905082811015610198576040517f08c379a000000000000000000000000000000000000000000000000000000000815260040161018f9061042a565b60405180910390fd5b8173ffffffffffffffffffffffffffffffffffffffff166108fc849081150290604051600060405180830381858888f193505050501580156101de573d6000803e3d6000fd5b5082600160008473ffffffffffffffffffffffffffffffffffffffff1673ffffffffffffffffffffffffffffffffffffffff168152602001908152602001600020600082825461022e9190610479565b92505081905550826000808282546102469190610479565b92505081905550505050565b60005481565b6000600160003373ffffffffffffffffffffffffffffffffffffffff1673ffffffffffffffffffffffffffffffffffffffff16815260200190815260200160002054905090565b600034905080600160003373ffffffffffffffffffffffffffffffffffffffff1673ffffffffffffffffffffffffffffffffffffffff16815260200190815260200160002060008282546102f391906104ad565b925050819055508060008082825461030b91906104ad565b9250508190555050565b6000819050919050565b61032881610315565b82525050565b6000602082019050610343600083018461031f565b92915050565b600080fd5b61035781610315565b811461036257600080fd5b50565b6000813590506103748161034e565b92915050565b6000602082840312156103905761038f610349565b5b600061039e84828501610365565b91505092915050565b600082825260208201905092915050565b7f416d6f756e74206d757374206265206c657373207468616e206f72206571756160008201527f6c20746f20746865206465706f736974656420616d6f756e7400000000000000602082015250565b60006104146039836103a7565b915061041f826103b8565b604082019050919050565b6000602082019050818103600083015261044381610407565b9050919050565b7f4e487b7100000000000000000000000000000000000000000000000000000000600052601160045260246000fd5b600061048482610315565b915061048f83610315565b9250828210156104a2576104a161044a565b5b828203905092915050565b60006104b882610315565b91506104c383610315565b9250827fffffffffffffffffffffffffffffffffffffffffffffffffffffffffffffffff038211156104f8576104f761044a565b5b82820190509291505056fea2646970667358221220c4a3476457264d20810109fd809d9bb6c651fa5457e9ad3cf9b54b87884968e964736f6c634300080d0033",
  "immutableReferences": {},
  "source": "// SPDX-License-Identifier: MIT\npragma solidity ^0.8.13;\n\ncontract SimpleBank {\n    uint public totalBalance;\n    mapping(address => uint) private balanceByAddress;\n\n    constructor() {\n        totalBalance = 0;\n    }\n\n    function getTotalBalance() external view returns (uint) {\n        return totalBalance;\n    }\n\n    function viewMyBalance() external view returns (uint) {\n        return balanceByAddress[msg.sender];\n    }\n\n    function deposit() payable external {\n        uint amount = msg.value;\n        balanceByAddress[msg.sender] += amount;\n        totalBalance += amount;\n    }\n\n    function withdraw(uint amount) external {\n        address payable withdrawAddress = payable(msg.sender);\n        uint balances = balanceByAddress[msg.sender];\n        require(balances >= amount, \"Amount must be less than or equal to the deposited amount\");\n        withdrawAddress.transfer(amount);\n        balanceByAddress[withdrawAddress] -= amount;\n        totalBalance -= amount;\n    }\n}\n",
  "sourcePath": "/home/khive/Blockchain_Second/contracts/SimpleBank.sol",
  "compiler": {
    "name": "solc",
    "version": "0.8.13+commit.abaa5c0e.Emscripten.clang"
  },
  "schemaVersion": "3.4.16",
  "updatedAt": "2024-01-05T12:15:34.316Z",
  "networkType": "ethereum",
  "devdoc": {
    "kind": "dev",
    "methods": {},
    "version": 1
  },
  "userdoc": {
    "kind": "user",
    "methods": {},
    "version": 1
  }
}